:020000040800F2
:100000004014002001010008050100080701000854
:10001000090100080B0100080D01000800000000A4
:100020000000000000000000000000000F010008B8
:10003000110100080000000013010008ED0C000889
:100040001701000817010008170100081701000830
:100050001701000817010008170100081701000820
:100060001701000817010008170100081701000810
:100070001701000817010008170100081701000800
:1000800017010008170100081701000817010008F0
:1000900017010008170100081701000817010008E0
:1000A00017010008170100081701000817010008D0
:1000B00017010008170100081701000817010008C0
:1000C00017010008170100081701000817010008B0
:1000D00017010008170100081701000817010008A0
:1000E000170100081701000817010008DFF80CD0FD
:1000F00000F096FA0048004735210008401400201F
:1001000005480047FEE7FEE7FEE7FEE7FEE7FEE7FD
:10011000FEE7FEE7FEE7FEE7ED00000840EA010328
:100120009B0703D009E008C9121F08C0042AFAD2AD
:1001300003E011F8013B00F8013B521EF9D2704771
:100140002DE9FE4F804681EA0300C00F0C46009067
:1001500021F0004123F00045B8EB0200A94105D28F
:100160004046214690461C460B46024623F000407E
:10017000104304D14046214603B0BDE8F08F270D5F
:10018000C7F30A00C3F30A510290401A01904028B5
:1001900066DAC3F3130040F4801B0098924620B146
:1001A0000023D2EB030A63EB0B0B01985946C0F115
:1001B0004002504600F08CF906460D46504659461E
:1001C000019A00F0A4F910EB08006141002487EACD
:1001D000115284EAE7731A433BD0009A3AB3019A6A
:1001E000012A4FEA075210DC001B61EB02014FF0BD
:1001F000004202EA0752CDE90042001C41F580119D
:1002000032462B4600F0A2F9B6E7001B61EB020173
:10021000001C41F5801300185B412018A2F500175F
:1002200047EB030140EAD570B6196D4111E06D0846
:100230004FEA360645EAC0754FEA0752001B61EBEC
:100240000201001C41F5801149084FEA30000019F5
:10025000514132462B4603B0BDE8F04F00F069B97A
:100260000098012240000023D0EB020263EBE07310
:10027000009821464FEAE074B8EB000061EB0401FE
:10028000E9E783F000435BE781F0004158E72DE99F
:10029000FE4F81EA030404F0004421F00041009481
:1002A0004FF0000B23F0004350EA010402D052EA61
:1002B000030404D10020014603B0BDE8F08FC3F36E
:1002C0000A54C1F30A552C44A4F2F3340194A0FB60
:1002D0000254C1F3130141F48011C3F3130343F437
:1002E000801301FB024400FB034E840A970A44EA90
:1002F000815447EA8357A4FB076802958D0A05FBE2
:1003000007854FEA932C04FB0C542705029D4FEA06
:10031000065847EA1637B5EB08056EEB070C870E53
:10032000920E47EA811742EA8312A7FB0201B6EB5D
:100330000B0164EB00042B0D43EA0C335E1844EB15
:100340001C50DA465146E7FB0201C5F313044FEA9D
:100350000B3343EA14534FEA0432019C43EA060389
:10036000A4F10C040294009CCDE900B400F0EEF876
:10037000A2E72DE9F04D81EA030404F0004B21F0DF
:10038000004514464FF0000A23F0004150EA0502F0
:1003900020D054EA01021DD0C5F30A570246C5F326
:1003A0001303C1F31300C1F30A5640F4801543F45C
:1003B0008013A7EB0608101BD64608F2FD3873EB36
:1003C000050002D308F1010801E092185B41B8F181
:1003D000000F03DA00200146BDE8F08D00204FF445
:1003E0008011064684460EE0171B73EB050705D304
:1003F000121B63EB050306434CEA010C49084FEA64
:10040000300092185B4150EA0107EDD152EA030037
:1004100012D082EA040083EA0501084303D10022D6
:100420004FF0004308E0101BAB4102D20122002331
:1004300002E06FF0010253101AEB06004CEB08517A
:1004400010EB0A0041EB0B01BDE8F04D00F071B874
:100450000EB5C10F80EAE0700844CA07002140F2DF
:1004600033438DE80E000A460B4600F06FF803B0E8
:1004700000BDC1F30A5210B5C1F3130140F2FF33BE
:1004800041F480119A4201DA002010BD40F233435A
:100490009A42A2F2334203DC524200F028F810BD27
:1004A000904010BD30B50B460146002020220124AB
:1004B00009E021FA02F59D4205D303FA02F5491B32
:1004C00004FA02F52844151EA2F10102F1DC30BD48
:1004D000202A04DB203A00FA02F100207047914004
:1004E000C2F1200320FA03F3194390407047202AF9
:1004F00004DB203A21FA02F00021704721FA02F3CE
:10050000D040C2F120029140084319467047202A8A
:1005100006DBCB17203A41FA02F043EAE07306E02B
:1005200041FA02F3D040C2F120029140084319463B
:10053000704710B5002B08DA401C41F100019218F9
:100540005B411A4301D120F0010010BD2DE9F04DAF
:1005500092469B4611B1B1FA81F202E0B0FA80F204
:1005600020329046FFF7B4FF04460F4640EA0A00E7
:1005700041EA0B0153465A46084303D12046394607
:10058000BDE8F08D114653EA010015D0C8F14002D4
:100590005046FFF7ACFF05460E46504659464246C8
:1005A000FFF796FF084301D0012000E0002005433B
:1005B00046EAE0762C4337430A984FEA4453A0EBCF
:1005C00008004FEAD4240A304FF0000244EA4754AE
:1005D0004FEAD72502D500200146D1E701051019C1
:1005E0006941DDE9084500196941BDE8F04DA0E722
:1005F00070B521F0004303430CD0C1F30A55002429
:10060000D5EB040564EB0403D617AD1AB34102DB46
:100610000020014670BD201841EB025170BD000062
:10062000064C074D06E0E06840F0010394E807003F
:1006300098471034AC42F6D3FFF75CFD605C0008CD
:10064000805C00080EB540F2334102910021CDE9F3
:1006500000110A460B46FFF779FF03B000BD70B5E5
:10066000C1F30A5201F000450024C1F3130140F226
:10067000FF3341F480119A4201DA002070BD40F24C
:1006800033439A42A2F2334203DC5242FFF72FFF78
:1006900000E090402C43F1D0404270BD30B58C1842
:1006A00010F8012B12F00F0301D110F8013B1209D1
:1006B00006D110F8012B03E010F8015B01F8015B93
:1006C0005B1EF9D101E001F8013B521EFBD1A142B2
:1006D000E6D3002030BD000030B50246002009E01E
:1006E0000312074C34F8133083EA002312F8015B3D
:1006F0006B4098B20B00A1F10104A1B2F0D130BD62
:100700003039000800B58BB0174800F035F81748AD
:1007100000901748019010200290162003900020AE
:1007200004908020059000200690079008904FF4D8
:100730004050099000200A9069460B4800F0C2F82A
:100740000948143000F018F8084800900948019052
:10075000002002901020039069460348143000F0F6
:10076000B1F80BB000BD0000440002400438014065
:100770000E050020C802002001684FF6FE721140ED
:1007800001600021016041608160C1604B49884285
:1007900008D14A490839496841F00F01474A083AE7
:1007A00051608AE045491431884208D143490839EB
:1007B000496841F0F001414A083A51607DE03F4903
:1007C0002831884208D13D490839496841F47061AF
:1007D0003A4A083A516070E038493C31884208D1C1
:1007E00036490839496841F47041344A083A516041
:1007F00063E032495031884208D1304908394968AC
:1008000041F470212D4A083A516056E02B49643179
:10081000884208D129490839496841F47001274ABA
:10082000083A516049E025497831884208D1234986
:100830000839496841F07061204A083A51603CE04B
:100840001F49884206D1011F096841F00F01021FAC
:10085000116032E01A491431884208D11849091F41
:10086000096841F0F001164A121F116025E0144991
:100870002831884208D11249091F096841F4706182
:100880000F4A121F116018E00D493C31884208D10F
:100890000B49091F096841F47041094A121F116090
:1008A0000BE007495031884207D10549091F096803
:1008B00041F47021024A121F116070470800024083
:1008C0000804024010B50022026847F6F0739A430C
:1008D0000C6A8B6823430C6923434C6923438C695E
:1008E0002343CC6923434C6A23438C6A23431A4332
:1008F0000260CB6843600B6883604B68C36010BDC7
:1009000001B502E00098401E009000980028F9D13F
:1009100008BD00004FF033300D4908600D48091D37
:10092000086040F2FF100A490C3108604FF088302F
:1009300009490860091D0860C80508494860AD20DC
:1009400008600748008840F080000549088070472B
:100950000008014033888833000C0140000001404A
:100960002C6C0040F0B504460D461746002C31DBD8
:10097000002D2FDB21462A46914214D301E049087D
:1009800052083F29FBD8654800EBC11030F81230FF
:10099000DEB2214601FB06F04FEA102C8C44180A07
:1009A00038606046F0BD01E0490852083F2AFBD894
:1009B0005A4800EBC21030F81130DEB2294601FB74
:1009C00006F04FEA102C8C441E0AC6F15A0038601B
:1009D0006046E7E7002C33DA002D31DA61426A42E3
:1009E000914216D301E0490852083F29FBD84B48F1
:1009F00000EBC11030F81230DEB2614201FB06F0AC
:100A00004FEA102C8C441E0A06F1B4003860604690
:100A1000C8E701E0490852083F2AFBD83F4800EBED
:100A2000C21030F81130DEB2694201FB06F04FEA25
:100A3000102C8C441E0AC6F5877038606046B1E7FA
:100A4000002C33DB002D31DA21466A42914216D365
:100A500001E0490852083F29FBD8304800EBC1109B
:100A600030F81230DEB2214601FB06F04FEA102CBE
:100A70008C441E0AC6F5B4703860604692E701E007
:100A8000490852083F2AFBD8244800EBC21030F82E
:100A90001130DEB2694201FB06F04FEA102C8C44A3
:100AA0001E0A06F58770386060467BE7002C33DA53
:100AB000002D31DB61422A46914216D301E04908FC
:100AC00052083F29FBD8154800EBC11030F812300E
:100AD000DEB2614201FB06F04FEA102C8C441E0A84
:100AE000C6F1B400386060465CE701E0490852088E
:100AF0003F2AFBD8094800EBC21030F81130DEB2B3
:100B0000294601FB06F04FEA102C8C441E0A06F120
:100B10005A003860604645E7002043E73C3B000848
:100B20001D48006840F480301B4908600846006892
:100B300040F4407008600846006840F400400860D7
:100B400012201649086016481349486000BF124831
:100B5000006810F4003FFAD00F48006840F0807041
:100B60000D49086000BF0C48006810F0007FFAD003
:100B70000948406840F002000749486000BF064845
:100B8000406800F00C000828F9D11D200249886156
:100B900070200449086070470010024000200240A5
:100BA00000041D000070004030B50B46521000BF1D
:100BB000074CE46814F0010FFAD103E033F8024B5C
:100BC00020F8024B1400A2F10105AAB2F6D130BD03
:100BD000002002403548C06940F0C0503349C86128
:100BE0003348006840F48070314908602F48006A3B
:100BF00000F40040B0F5004F56D02C48006A40F495
:100C000080302A4908620846006A20F48030086271
:100C10000846006A40F4014008622648008840F017
:100C2000010024490880081D008840F01000091DBB
:100C300008800020091D0880C813091D0880AD2008
:100C40001D4908601D48008840F080001B4908804D
:100C50000846008840F4407008801648001D00884F
:100C600020F010001349091D08801048006A40F068
:100C700001000E49086200BF0C48006A10F0010F25
:100C8000FAD00C48001D00884FF6F771084009495A
:100C9000091D088000BF0748001D008800F00800FB
:100CA0000828F8D1002070470120FCE7001002401E
:100CB0000070004000280040000001402C6C004003
:100CC0000949098841F01001074A1180010C064AC0
:100CD00014321180121D10800349098821F010017F
:100CE000014A1180704700000428004001200C498F
:100CF00008600C4908600C480088401C0A490880BC
:100D00000A48006880F00200084908600648008828
:100D1000B0F5966F02D100200349088070470000AB
:100D20000C000020E0020020940200200C0801408A
:100D30001248806940F48040104988614FF4966001
:100D40000F4908600D48806944F2050108430B49CA
:100D500088610B48006840F49260094908604E20A1
:100D600008490880081D008840F00C00091D088013
:100D70000846008840F40050088070470010024088
:100D8000040801400838014002460020B1F5007F08
:100D900000D100BF13880B4201D0012000E00020E9
:100DA0007047C1F3080282807047000010B52E4BD7
:100DB00018602E4B196053102D4C23802D4B2E4C58
:100DC00063602E4B636000BF2B4BDB6813F0010F99
:100DD000FAD1294B1B6943F00203274C23612346B8
:100DE00059611B6943F04003236100BF224BDB685C
:100DF00013F0010FFAD1204B1B6923F002031E4CA4
:100E0000236123461B6943F00103236122E0164B53
:100E10001B681B88154C24682380134B1B689B1C84
:100E2000114C2360114B1B689B1C104C2360104B12
:100E30001B885B1E1B041B0C0D4C23800AD10E4B20
:100E40001B6923F001030C4C236123461B6943F00B
:100E500080032361064B1B8823B1074BDB6813F02B
:100E6000010FD4D010BD00000403002008030020AF
:100E70000C0300202301674500200240AB89EFCD21
:100E800070B504460D464FF0333025490860091D02
:100E9000086023480C3004600120FFF731FD4FF457
:100EA0000010204908600120FFF72AFD20201D497D
:100EB0000860240C1A480C3004600120FFF720FD64
:100EC0004FF00040174908600120FFF719FD4FF46B
:100ED00000401449086012480C3005600120FFF7FB
:100EE0000FFD4FF480200F4908600120FFF708FD37
:100EF0004FF480000B4908600120FFF701FD4020FE
:100F0000084908600120FFF7FBFC04200549086040
:100F10004FF0883002490860091D086070BD00006C
:100F2000000C0140100801400FB4054B10B503A997
:100F3000044A029800F048FB10BC5DF814FB000066
:100F4000F120000824030020490050EAC12018BF06
:100F500004204A0D18BF40F0010040F2FF72B2EBCE
:100F6000515F08BF40F00200012808BF052070470C
:100F70002DE9F74F144696B00021C4E902111799E4
:100F8000089121F00045CA498D4206DC1799C4E951
:100F9000000119B00020BDE8F08FC649DFF818A3A2
:100FA000A9423CDD0899C54E0029C54FC54A17998D
:100FB000534619DDFFF765F9554506D0C24AC34BC4
:100FC000FFF75FF9C4E900010AE04FF0D352BF4BCD
:100FD000FFF757F932463B46FFF753F9C4E90001E2
:100FE00019B00120BDE8F08FFFF7AAF8554506D0EB
:100FF000B54AB64BFFF7A4F8C4E900010AE04FF088
:10100000D352B24BFFF79CF832463B46FFF798F8B5
:10101000C4E9000119B04FF0FF30BDE8F08FAC49D2
:10102000A942179978DB21F000488346A94AAA4BC8
:101030004146FFF72CF90022A84BFFF781F8FFF794
:101040000EFB0990FFF704FA06460F469D4A5346E9
:10105000FFF71DF95A464346FFF716F980468A46C0
:10106000994A9A4B30463946FFF711F92A0D012566
:101070000B9242465346FFF707F9032DC4E90001DE
:1010800039D00B98C1F30A51401A05EB45111139BB
:10109000814230DA9248C346784400EB0510CDF81F
:1010A0001CA00C90D0E9002330463946FFF7EFF83A
:1010B000CDE9020102460B4658460799FFF7E1F8D1
:1010C00080468A4602460B4658460799FFF7D9F8EC
:1010D000DDE90223FFF7D5F883460C9803913946E2
:1010E000D0E902233046FFF7D2F85A46039BFFF7B8
:1010F000C8F86D1CBDE708980028A2BF099819B070
:10110000BDE8F08F616881F000416160099819B015
:101110004042BDE8F08FFFE7C1F3130141F48011B5
:101120000E911799C1F30A51A1F2F532511102F053
:101130001F08C8F12002129200220C920D92694AF7
:101140007A4402EB810101F1140C0DA95FF006074E
:10115000DCF80020DCF8045002FA08F3129AD1F807
:1011600000A025FA02F21A430E9BA2FB0356A2FB33
:1011700000329A4415449A4534BF4FF0010B4FF0AA
:10118000000B51F8043C05EB0B0E7344954234BF41
:10119000012200221644BBF1000F02D0AB4202D95B
:1011A00003E0AB4201D2012200E000223244C1F848
:1011B00000A041E90223091FACF1040C7F1EC7D136
:1011C0000898DDE90A6500F10050800F1190089839
:1011D000099F8000FFF73CF980468A463846FFF7B2
:1011E00031FA6FF01D02FFF703FA0746304605910A
:1011F000FFF728FA6FF03D02FFF7FAF9CDE9031087
:101200002846FFF71FFA6FF05D02FFF7F1F9064677
:1012100002460B460191DDE90310FEF791FF3A46C5
:10122000059BFEF78DFF42465346FEF789FF0020DF
:101230000D46834642465346FFF723F83A46059B40
:10124000FFF71FF8DDE90332FFF71BF83246019B79
:10125000FFF71AF8DFF89480234A4346FFF717F8A0
:1012600006460F46224A234B58462946FFF70FF8F9
:1012700032463B46FEF764FF0F4606464FF0A84253
:10128000434658462946FFF702F832463B46FEF7EA
:1012900057FF179A12F0004F04D0119A81F00041C5
:1012A00052421192C4E90001119819B0BDE8F08FC3
:1012B000FB21E93F7CD90240FB21F93F7370032EEB
:1012C0008A19A33B000040543163621A61B4D03DD7
:1012D000FB21394183C8C96D305FE43F0000E03F26
:1012E000D44A00005C4A0000182D4454FB21F93D0B
:1012F0003326A611460B113C2DE9FF4D21F0004885
:1013000007460C46B8F1795F08DAFFF7A8F900281C
:1013100001BF0020324904B0BDE8F08D3A462346B3
:1013200010461946FEF7B3FF054602462D480E4605
:101330000B460621784400F05DF82A463346FEF756
:10134000A6FFDDE9022382468B4638462146FEF79A
:101350009EFF04460F4652465B4628463146FEF73E
:1013600096FF22463B46FEF78CFF07468A464FF023
:10137000FF3228463146FFF73BF91B4A90450ADA0F
:101380003A465346FEF77DFF04B00022BDE8F04D1B
:10139000134BFEF779BF154A4245A8BFA8F50015C3
:1013A0004FF00004B8BF124D22462B46FEF769FFEE
:1013B0000646884622462B4600200949FEF761FF73
:1013C00004460D463A46534630464146FEF759FF1D
:1013D00004B022462B46BDE8F04DFEF755BF000095
:1013E0000000F03F084800003333D33F0000E93FDE
:1013F0000000D23F2DE9F0414F1E00EBC70104462B
:10140000D1E9000115461E4637F006020DD02A46E6
:101410003346FEF73CFF7F1E04EBC703D3E90023EE
:10142000FEF78EFE37F00602F1D1022F25D0042FF1
:1014300013D0062F18BFBDE8F0812A463346FEF7C9
:1014400026FFD4E90A23FEF77BFE2A463346FEF741
:101450001EFFD4E90823FEF773FE2A463346FEF743
:1014600016FFD4E90623FEF76BFE2A463346FEF745
:101470000EFFD4E90423FEF763FE2A463346FEF747
:1014800006FFD4E90223FEF75BFE2A463346FEF749
:10149000FEFED4E90023BDE8F041FEF751BE000096
:1014A0002DE9FF4D054621F0004084B00C46B0F117
:1014B000795F0BDA2846FFF747FD042808BF00F0E4
:1014C00065F8284608B02146BDE8F08D2A460B464F
:1014D0001046FEF7DCFE06460F462A462346FEF778
:1014E000D6FE804626488A4632463B460521784449
:1014F000FFF780FF83461098029160B3214A224B88
:1015000040465146FEF7C3FECDE900015A4640462B
:101510005146029BFEF7BBFE82468846DDE9060186
:101520004FF0FF32FFF764F852464346FEF7A9FE3C
:1015300032463B46FEF7ABFEDDE90623FEF7A1FE91
:10154000DDE90023FEF79DFE08B02A462346BDE8EC
:10155000F04DFEF799BE0B465A4630463946FEF727
:1015600096FE084A084BFEF7EBFD42465346FEF74F
:101570008EFE08B02A462346BDE8F04DFEF7E0BDDA
:1015800046470000495555555555C5BF024A0020EC
:101590001107FFF72DB8000001FDFFFF02E008C8AA
:1015A000121F08C1002AFAD170477047002001E0DD
:1015B00001C1121F002AFBD17047000001490860D9
:1015C00070470000280300202DE9FF4F89B09B469B
:1015D0000446002597E0252833D10027641C4E4996
:1015E000B84601222378203B02FA03F0084202D0D9
:1015F0000743641CF6E720782E2819D114F8010F50
:1016000047F004072A280ED06FF02F022078A0F1AF
:10161000300109290CD808EB880102EB410100EBED
:101620000108641CF2E70A98641C50F8048B0A90C5
:10163000207800286BD0642808D0692806D0752847
:1016400020D05A460B9990476D1C5BE00A994FF0E9
:101650000A0901C90A91002804DAC0F100004FF01C
:101660002D0102E0390504D52B218DF82010012130
:1016700003E0F90704D02021F7E78A4608AE0EE020
:101680000021FAE70A994FF00A0901C90A91F7E720
:101690004946FEF707FF01F1300106F8011D002859
:1016A000F6D1ADEB060000F12009780701D44FF028
:1016B0000108C84502DDA8EB090000E000208046D3
:1016C000002706E008A85A46C05D0B9990476D1C9C
:1016D0007F1C5745F6DB04E030205A460B999047B3
:1016E0006D1CB8F10001A8F10108F5DC05E016F861
:1016F000010B5A460B9990476D1CB9F10001A9F1F5
:101700000109F4DC641C207800287FF464AF0DB07C
:101710002846BDE8F08F00000928010010B51048E8
:101720000078C8B90F480088B0F5805F11DB00F081
:101730001FF80D480068B0F5005F0FD3012008497D
:1017400008700020074908800749086007490860B9
:1017500004E000F013F901E000F0AAFA10BD000067
:1017600018000020E80200201C03002018030020BD
:1017700010B500207C49086008207C4908600F20D3
:10178000FFF7BEF84FF4002078490860C0100860E9
:10179000C00108607448001F0068754908808020F7
:1017A00072490860724801887248006800F58050EC
:1017B000FFF766FB6F480068401C6E4908606E4882
:1017C0000068401C6C4908604FF4000067490860DD
:1017D0006548001F006866494880802063490860AA
:1017E000634841886348006800F58050FFF748FB74
:1017F00060480068401C5F4908605F480068401C02
:101800005D4908604FF40000584908605648001FC1
:10181000006857498880802054490860544881886E
:101820005448006800F58050FFF72AFB51480068D3
:10183000401C5049086050480068401C4E490860F0
:101840004FF40000494908604748001F00684849B4
:10185000C8808020454908604548C18845480068DF
:1018600000F58050FFF70CFB42480068401C4149DE
:10187000086041480068401C3F4908604FF4000080
:101880003A4908603848001F00683949088108460D
:1018900001893848006800F58050FFF7F1FA3548B3
:1018A0000068401C3349086033480068401C3249D6
:1018B000086080202D490860000408602A48001F45
:1018C00000682B494881084641892A48006800F58C
:1018D0008050FFF7D5FA27480068401C254908606A
:1018E00025480068401C2449086080201F49086082
:1018F000000408601C48001F00681D4988810846D4
:1019000081891C48006800F58050FFF7B9FA194832
:101910000068401C1749086017480068401C1649B9
:101920000860802011490860000408600E48001F0C
:1019300000680F49C8810846C1890E48006800F553
:101940008050FFF79DFA0B480068401C0949086069
:1019500009480068401C0849086080200349086065
:101960000120086010BD00000C0C0140100801406F
:10197000500B0020180300201C03002010B500208D
:10198000C44908600820C44908600F20FEF7B8FF6A
:101990004FF40020C0490860C0100860C001086012
:1019A000BC48001F0068BD49088008460188BC4843
:1019B000006800F58050FFF763FABA480288008893
:1019C000401CB84B1880B84830F81210B448006872
:1019D000FFF756FAB2480068401CB1490860B348A6
:1019E0000088401CB1490880AE480088C0F3080058
:1019F000AC4908808020A849086000040860A54818
:101A0000001F0068A549488008464188A44800682E
:101A100000F58050FFF734FAA24802880088401C85
:101A2000A04B1880A04830F812109D480068FFF7BE
:101A300027FA9B480068401C994908609B48008829
:101A4000401C9A49088097480088C0F308009549CF
:101A50000880802090490860000408608D48001FBD
:101A600000688E498880084681888D48006800F5A6
:101A70008050FFF705FA8B4802880088401C894B8C
:101A80001880894830F8121085480068FFF7F8F987
:101A900083480068401C8249086084480088401CD4
:101AA000824908807F480088C0F308007D4908808B
:101AB000802079490860000408607648001F0068AB
:101AC0007649C8800846C1887548006800F580508E
:101AD000FFF7D6F9734802880088401C714B1880C4
:101AE000714830F812106E480068FFF7C9F96C4869
:101AF0000068401C6A4908606C480088401C6B49BB
:101B0000088068480088C0F3080066490880802083
:101B100061490860000408605E48001F00685F4972
:101B20000881084601895E48006800F58050FFF78B
:101B3000A7F95C4802880088401C5A4B18805A4814
:101B400030F8121056480068FFF79AF954480068B8
:101B5000401C5349086055480088401C5349088080
:101B600050480088C0F308004E49088080204A4948
:101B70000860000408604748001F00684749488122
:101B8000084641894648006800F58050FFF778F91B
:101B9000444802880088401C424B1880424830F874
:101BA00012103F480068FFF76BF93D480068401C81
:101BB0003B4908603D480088401C3C490880394842
:101BC0000088C0F308003749088080203249086047
:101BD000000408602F48001F0068304988810846CB
:101BE00081892F48006800F58050FFF749F92D489A
:101BF00002880088401C2B4B18802B4830F81210AC
:101C000027480068FFF73CF925480068401C244934
:101C1000086026480088401C244908802148008824
:101C2000C0F308001F49088080201B490860000499
:101C300008601848001F00681849C8810846C18913
:101C40001748006800F58050FFF71AF91548028818
:101C50000088401C134B1880134830F812101048AD
:101C60000068FFF70DF90E480068401C0C49086039
:101C70000E480088401C0D4908800A480088C0F3BF
:101C80000800084908808020034908600120086096
:101C900010BD00000C0C014010080140500B00204A
:101CA00018030020E402002050070020E802002072
:101CB00010B54FF6FF70B54908600820B4490860B8
:101CC0000F20FEF71DFE4FF40020B14908600120EF
:101CD000FEF716FE4FF48030AD4908600120FEF794
:101CE0000FFE4FF40000AA4908600120FEF708FE2D
:101CF000A648001F0068A7490880A748A7490968A7
:101D000030F81100A3490880084600880880802028
:101D10009F4908609F480188A14802880088401CAC
:101D20009F4B18809F4820F8121018460088C0F377
:101D30000800194608804FF400009549086000200B
:101D4000FEF7DEFD9148001F0068924948809648E2
:101D50009249096830F811008E4948800846408849
:101D6000488080208A4908608A4841888C480288D7
:101D70000088401C8A4B18808A4820F812101846A8
:101D80000088C0F30800194608804FF4000080491D
:101D900008600020FEF7B4FD7C48001F00687D4904
:101DA000888082487D49096830F811007949888027
:101DB0000846808888808020754908607548818839
:101DC000774802880088401C754B1880754820F8B9
:101DD000121018460088C0F30800194608804FF416
:101DE00000006B4908600020FEF78AFD6748001F6D
:101DF00000686849C8806E486849096830F8110071
:101E00006449C8800846C088C8808020604908604E
:101E10006048C188624802880088401C604B188076
:101E2000604820F8121018460088C0F308001946D0
:101E300008804FF40000564908600020FEF760FD5E
:101E40005248001F0068534908815A48534909689D
:101E500030F811004F490881084600890881802028
:101E60004B4908604B4801894D4802880088401C56
:101E70004B4B18804B4820F8121018460088C0F3CE
:101E80000800194608804FF400004149086000200E
:101E9000FEF736FD3D48001F00683E494881464830
:101EA0003E49096830F811003A494881084640899E
:101EB0004881802036490860364842893848018880
:101EC0000088401C364B1880364820F811201846F0
:101ED0000088C0F30800194608804FF400002C4920
:101EE00008600020FEF70CFD2848001F0068294903
:101EF000888132482949096830F8110025498881CC
:101F0000084680898881802021490860214882898B
:101F1000234801880088401C214B1880214820F864
:101F2000112018460088C0F30800194608804FF4B5
:101F30000000174908600020FEF7E2FC1348001F6C
:101F400000681449C8811E481449096830F8110016
:101F50001049C8810846C089C88180200C490860A2
:101F60000C48C1890E4802880088401C0C4B188020
:101F70000C4820F8121018460088C0F308001946D3
:101F8000088001200249086010BD00000C0C0140CF
:101F900010080140500B00208E030020EC020020AE
:101FA000E402002050070020BE030020EE030020C2
:101FB0001E0400204E0400207E040020AE040020F9
:101FC000DE0400202DE9F0410446D4F81080A56815
:101FD000E6686768204600F092F8E0B10120E06111
:101FE00008F10108B8F1180F0DD14FF00008761C68
:101FF000072E00D10026781E0949085CA84201D1AD
:1020000000257F1C6D1C6760C4F81080A560E66029
:102010000120BDE8F0810020E06100BFF9E7000089
:10202000303B00082DE9F04102463C27B2FBF7FCAB
:1020300007FB1C278F613C27B2FBF7F2B2FBF7FCD2
:1020400007FB1C274F613C27B2FBF7F21827B2FBB6
:10205000F7FC07FB1C270F611827B2FBF7F7B8B294
:10206000471C4FF0070C97FBFCF80CFB1877CF6070
:102070000023012600BF40F26D1513F0030F0BD1B2
:102080006D1C1BB1642B01D0C82B05D1771EFFB28C
:102090003E0001D040F26D15A84200DA04E0471B73
:1020A000B8B25F1CFBB2E6E700BF03F5FA670F604A
:1020B00015F0010F03D03A2801DD471CB8B2012406
:1020C00008E0671EDFF824C01CF80770C71BB8B211
:1020D000671CFCB2671EDFF814C01CF8077087424B
:1020E000EFDD4C60471C8F60BDE8F081303B00089D
:1020F00070B504460D46204601F0E2FA70BD014677
:102100000A79032A01DB0A2A01DD002070470B7BD4
:102110008868C01A192807D313B90869022803D39D
:102120000A2A05D10020F1E7032A01D10020EDE7BA
:102130000120EBE788B04FF0000A05E0FF20FE49E0
:1021400001F80A000AF1010ABAF1630FF6DD4EF652
:102150006021B1F1807F00D31DE021F07F40401E5F
:102160004FF0E022506150170F22002807DA1307C2
:102170001D0EF24B00F00F04241F1D5503E0130742
:102180001C0EEF4B1C5400BF00204FF0E02290616A
:102190000720106100BFFEF7C3FCFEF7BBFBE7485A
:1021A000E430006840F08070E449E4310860E548BC
:1021B000006840F00100E349086000204860FEF735
:1021C000A1FAFEF7B5FDE0A0FEF7AEFE0020DF4964
:1021D000086032E0DD480068FEF73AF900224FF06F
:1021E0008043CDE90001FEF752F880464FF00042EF
:1021F000D74BFEF74CF806460022D64BFEF7B9F84F
:10220000044601F06FFA0022D34BCDE90201FEF73C
:102210003EF80022D14BCDE90401FDF791FFCDE955
:102220000601FEF726F9CE49C84A126821F81200C5
:10223000C6480068401CC5490860C44800681828A2
:10224000C8DB0020C149086032E0C0480068FEF7E2
:10225000FFF800224FF08043CDE90001FEF717F8A8
:1022600080464FF00042BA4BFEF711F806460022B6
:10227000B84BFEF77EF8044601F034FA0022B94B61
:10228000CDE90201FEF703F80022B44BCDE90401C9
:10229000FDF756FFCDE90601FEF7EBF8B249AB4A70
:1022A000126821F81200A9480068401CA74908607C
:1022B000A64800681828C8DB0020A449086032E05E
:1022C000A2480068FEF7C4F800224FF08043CDE931
:1022D0000001FDF7DCFF80464FF000429C4BFDF70C
:1022E000D6FF00229B4BCDE90201FEF742F80646DD
:1022F00001F0F8F9044600229C4BFDF7C8FF0022CC
:10230000964BCDE90401FDF71BFFCDE90601FEF771
:10231000B0F897498D4A126821F812008B4800687E
:10232000401C8A490860894800681828C8DB0020DA
:102330008649086032E085480068FEF789F8002287
:102340004FF08043CDE90001FDF7A1FF4FF00042BF
:102350007F4BCDE90201FDF79AFF00227D4BCDE9CD
:102360000401FEF706F8064601F0BCF9804600229B
:10237000804BFDF78CFF04460022784BFDF7E0FE12
:10238000CDE90601FEF775F87B49704A126821F81D
:1023900012006E480068401C6C4908606B48006879
:1023A0001828C8DB00206949086032E067480068E7
:1023B000FEF74EF8064600224FF08043FDF767FF18
:1023C0004FF00042624BCDE90001FDF760FF0022B3
:1023D000604BCDE90201FDF7CCFFCDE9040101F02E
:1023E00081F904460022654BFDF751FF804600222B
:1023F0005A4BFDF7A5FECDE90601FEF73AF8604914
:10240000524A126821F8120050480068401C4F4997
:1024100008604E4800681828C8DB00204B49086057
:1024200032E04A480068FEF713F800224FF080437C
:10243000CDE90001FDF72BFF80464FF00042444BF1
:10244000FDF725FF06460022424BFDF792FF0446AA
:1024500001F048F900224B4BCDE90201FDF717FFCF
:1024600000223E4BCDE90401FDF76AFECDE90601ED
:10247000FDF7FFFF4449354A126821F8120033483E
:102480000068401C31490860304800681828C8DBE3
:1024900000202E49086032E02C480068FDF7D8FF84
:1024A00000224FF08043CDE90001FDF7F0FE4FF030
:1024B0000042274BCDE90201FDF7E9FE0646002266
:1024C000244BFDF756FF804601F00CF9044600222C
:1024D0002E4BFDF7DCFE0022204BCDE90401FDF779
:1024E0002FFECDE90601FDF7C4FF2949174A1268FE
:1024F00021F8120015480068401C14490860134870
:1025000000681828C8DB00201049086062E00F4806
:102510000068FDF79DFF00224FF08043CDE90001E8
:10252000FDF7B5FE06464FF00042094BFDF7AFFE42
:102530000022084B2EE000003405002018ED00E0DA
:1025400000E400E0001000E031323300EC02002033
:10255000FB210940000038400040DF40C0FFDF4061
:102560008E0300200046DE40BE030020004CDD400C
:10257000EE0300200052DC401E0400200058DB4027
:102580004E040020005EDA407E0400200064D94042
:10259000AE040020CDE90201FDF7EBFECDE9040118
:1025A00001F0A0F804460022774BFDF770FE80464C
:1025B0000022764BFDF7C4FDCDE90601FDF759FF7A
:1025C0007349744A126821F8120072480068401C6E
:1025D000704908606F480068182898DB00206D4932
:1025E00008604FF011306C4908600846006840F000
:1025F000800008600846006820F040000860084637
:10260000006840F030000860FEF7E4FA4FF47A709A
:10261000FEF776F901F04CF96048406860490860BF
:10262000422260496048FEF7BFFA42225D495E4897
:10263000FEF7BCFB42225B495B48FEF7B5FA40213E
:102640005948FEF749F85849B1F8401088420FD070
:10265000422256495448FDF761FD422251495248F1
:10266000FEF7A4FB5248007840F040005049087043
:102670005048406A10F0006F03D000204E49088097
:102680000AE04D48008842F20F71884204DA4A4855
:102690000088401C484908804648406A40F08070E5
:1026A000444948626FE04548006801286BD1FFF754
:1026B00035F862B60020414908604148354909684B
:1026C00030F811003F490860002000F057F93E48FB
:1026D0003049096830F811003A490860012000F0DB
:1026E0004DF93A482B49096830F81100354908601E
:1026F000022000F043F936482649096830F81100F5
:1027000030490860032000F039F93248214909684E
:1027100030F811002B490860042000F02FF92E48F2
:102720001C49096830F8110026490860052000F0AE
:1027300025F92A481749096830F81100214908602D
:10274000062000F01BF912481249096830F8110000
:102750001C490860072000F011F9002017490860A3
:102760000C480068401C0B4908600846006818289F
:1027700009DB0020086008480830006880F010007D
:102780000549083108608EE7006AD840C0FFDF4085
:10279000DE040020EC02002004080140001000E0EC
:1027A0001000002000FC00084C030020E83800085E
:1027B0000000002000100240004F00200C0000200C
:1027C0008E030020F0020020BE030020EE03002054
:1027D0001E0400204E0400207E040020AE040020D1
:1027E000082815D2DFE800F00415263748596A7B1F
:1027F00040490968404A116040490968404A1160EF
:1028000040490968404A116040490968404A1160DE
:102810006EE0384909683F4A1160384909683E4A04
:102820001160384909683D4A1160384909683C4AD5
:1028300011605DE02F4909683A4A11602F49096823
:10284000394A11602F490968384A11602F490968CF
:10285000374A11604CE027490968364A1160274918
:102860000968354A116027490968344A11602749C7
:102870000968334A11603BE01E490968314A11601A
:102880001E490968304A11601E4909682F4A1160C3
:102890001E4909682E4A11602AE0164909682D4A26
:1028A0001160164909682C4A1160164909682B4ABB
:1028B0001160164909682A4A116019E00D49096832
:1028C000284A11600D490968274A11600D490968B5
:1028D000264A11600D490968254A116008E005493A
:1028E0000968244A116005490968234A116000BF3C
:1028F00000BF7047C800002038000020D40000202E
:102900003C000020CC00002080000020D8000020E7
:1029100084000020400000204400002088000020A7
:102920008C000020480000204C0000209000002077
:1029300094000020580000205C000020A00000202F
:10294000A40000206000002064000020A8000020F7
:10295000AC000020680000206C000020B0000020C7
:10296000B40000207000002074000020B800002097
:10297000BC000020780000207C00002070B50446D8
:10298000FE48006830B106287DD00C287CD0122883
:102990007BD1F2E3FA480460FA480088401EF94906
:1029A000088008460088B8382044C01FC0F30800DB
:1029B000F54931F81000F5490860F2480088B03850
:1029C0002044C01FC0F30800EF4931F81000EF4960
:1029D0004860EC480088A8382044C01FC0F30800B5
:1029E000E94931F81000E9498860E6480088A038D4
:1029F0002044C01FC0F30800E34931F81000E34948
:102A0000C860E048008898382044C01FC0F3080020
:102A1000DD4931F81000DD490861DA480088903856
:102A20002044C01FC0F30800D74931F81000D7492F
:102A30004861D448008888382044C01FC0F308008B
:102A4000D14931F81000D1498861CE4800888038DA
:102A50002044C01FC0F30800CB4931F81000CB4917
:102A6000C861C848008878382044C01FC0F30800F7
:102A7000C54931F81000C5490862C248008870385D
:102A80002044C01F02E06FE2A6E36CE2C0F308003E
:102A9000BD4931F81000BD494862BA48008868381D
:102AA0002044C01FC0F30800B74931F81000B749EF
:102AB0008862B448008860382044C01FC0F3080012
:102AC000B14931F81000B149C862AE4800885838A1
:102AD0002044C01FC0F30800AB4931F81000AB49D7
:102AE0000863A848008850382044C01FC0F308007D
:102AF000A54931F81000A5494863A2480088483824
:102B00002044C01FC0F308009F4931F810009F49BE
:102B100088639C48008840382044C01FC0F30800E8
:102B2000994931F810009949C863964800883838A7
:102B30002044C01FC0F30800934931F810009349A6
:102B400008649048008830382044C01FC0F3080053
:102B50008D4931F810008D4948648A48008828382A
:102B60002044C01FC0F30800874931F8100087498E
:102B700088648448008820382044C01FC0F30800BF
:102B8000814931F810008149C8647E4800881838AE
:102B90002044C01FC0F308007B4931F810007B4976
:102BA00008657848008810382044C01FC0F308002A
:102BB000754931F810007549486572480088083831
:102BC0002044C01FC0F308006F4931F810006F495E
:102BD00088656C4800882044C01FC0F308006A491B
:102BE00031F810006949C86508460068896A0844D8
:102BF0006649096B401A6549896D401A00EB40012E
:102C000001EB002061494968604A526A11445F4AF9
:102C1000526B891A5D4A526D891A4FF4FA7202FB9F
:102C200001005A498968594A126A1144574A926BFD
:102C3000891A564A126D891A40F2C32202FB010119
:102C40005248C068514AD2691044504AD26B801A27
:102C50004E4AD26C801A40F2623202FB00114B489D
:102C600000694A4A92691044484A126C801A474ADD
:102C7000926C801A40F2C63202FB00104349496947
:102C80004FF47A7202FB01004049496C02FB1100CB
:102C90003F4908603D4800693C498969401A3B4901
:102CA000096C401A3949896C084400EB400101EB7A
:102CB00000203649C968354AD269891A334AD26B2D
:102CC000891A324AD26C11444FF4FA7202FB0101A4
:102CD0002E4880682D4A126A801A2C4A926B801AFC
:102CE0002A4A126D104440F2C32202FB0011274809
:102CF0004068264A526A801A244A526B801A234A34
:102D0000526D104440F2623202FB00101F49096804
:102D10001E4A926A891A1D4A126B891A1B4A926DC1
:102D2000114440F2C63202FB01001849C96D4FF44C
:102D30007A7202FB01001549C96A02FB11001549AC
:102D4000086010480088401C0E490880124A10484C
:102D5000016810480068FDF705FE42F6E061B0FB2F
:102D6000F1F00E4941F82400084630F82400C0F381
:102D7000072004EB4401002212E00000EC020020D6
:102D8000F4020020E402002050070020400F002041
:102D9000F8020020FC02002000030020600E00204A
:102DA00002EB8101F54A5054F54810F8240004EB79
:102DB0004401012202EB8101F04A5054F14800889D
:102DC000C0F3072004EB4401022202EB8101EB4A2D
:102DD0005054EC48007804EB4401032202EB8101DB
:102DE000E64A5054E848006842F6E06190FBF1F092
:102DF000E6490860E648006842F6E06190FBF1F0C1
:102E0000E4490860E44850F8240042F6E06190FB91
:102E1000F1F5E24850F8240090FBF1F6D94A294632
:102E20003046FDF79FFDDE4941F82400084630F8A2
:102E30002400C0F3072004EB4401042202EB8101CB
:102E4000CE4A5054D64810F8240004EB4401052221
:102E500002EB8101C94A5054CA480088C0F30720D8
:102E600004EB4401062202EB8101C44A5054C548D8
:102E7000007804EB4401072202EB8101BF4A505461
:102E8000C64850F8240042F6E06190FBF1F0C549D5
:102E90000860C14850F8240042F6E06190FBF1F070
:102EA000C14908600020BD4941F82400BA4941F8F1
:102EB0002400BE4850F8240042F6E06190FBF1F592
:102EC000BB4850F8240090FBF1F6AE4A2946304644
:102ED000FDF748FDB74941F82400084630F82400C2
:102EE000C0F3072004EB4401082202EB8101A34A4E
:102EF0005054B04810F8240004EB4401092202EBBE
:102F000081019E4A50549F480088C0F3072004EB7B
:102F100044010A2202EB8101984A505499480078F2
:102F200004EB44010B2202EB8101944A5054A04867
:102F300050F8240042F6E06190FBF1F09E490860F1
:102F40009A4850F8240042F6E06190FBF1F09B496A
:102F500008600020964941F82400944941F8240073
:102F60002046FFF73DFC78E3954850F8240042F6F0
:102F7000E06190FBF1F5934850F8240090FBF1F6E6
:102F8000804A29463046FDF7EDFC7D4941F8240092
:102F9000084630F82400C0F3072004EB4401002267
:102FA00002EB8101754A5054754810F8240004EB77
:102FB0004401012202EB8101704A5054714800889B
:102FC000C0F3072004EB4401022202EB81016B4AAB
:102FD00050546C48007804EB4401032202EB810159
:102FE000664A5054774850F8240042F6E06190FB5E
:102FF000F1F066490860724850F8240042F6E0613A
:1030000090FBF1F06349086000206D4941F824000D
:103010006C4941F824006C4850F8240042F6E06105
:1030200090FBF1F5694850F8240090FBF1F6554A01
:1030300029463046FDF796FC594941F824000846D8
:1030400030F82400C0F3072004EB4401042202EB13
:1030500081014A4A5054524810F8240004EB4401BC
:10306000052202EB8101454A505446480088C0F3CE
:10307000072004EB4401062202EB81013F4A505431
:103080004048007804EB4401072202EB81013B4AEF
:1030900050544E4850F8240042F6E06190FBF1F0A5
:1030A00040490860484850F8240042F6E06190FB2F
:1030B000F1F03D4908600020434941F824004349AC
:1030C00041F82400424850F8240042F6E06190FBA9
:1030D000F1F5404850F8240090FBF1F6294A2946C2
:1030E0003046FDF73FFC334941F82400084630F8EC
:1030F0002400C0F3072004EB4401082202EB810105
:103100001E4A50542B4810F8240004EB44010922B5
:1031100002EB8101194A50541A480088C0F3072075
:1031200004EB44010A2202EB8101144A5054154871
:10313000007804EB44010B2202EB81010F4A50544A
:10314000244850F8240042F6E06190FBF1F01A495F
:1031500008601F4850F8240042F6E06190FBF1F04F
:103160001649086000201A4941F82400194941F81D
:1031700024002046FFF734FB6FE236E134050020DF
:10318000600E002000030020FC020020C800002088
:10319000F8020020D4000020A00B0020C00B00206B
:1031A000800E0020CC000020D8000020E00B002082
:1031B000000C0020A00E0020D0000020DC00002029
:1031C000200C0020400C0020600C0020800C00200F
:1031D000A00C0020C00C0020FE4850F8240042F64D
:1031E000E06190FBF1F5FC4850F8240090FBF1F60B
:1031F000FA4A29463046FDF7B5FBF94941F8240063
:10320000084630F82400C0F3072004EB44010022F4
:1032100002EB8101F34A5054F14810F8240004EB0A
:103220004401012202EB8101EE4A5054EB48008830
:10323000C0F3072004EB4401022202EB8101E94ABA
:103240005054E648007804EB4401032202EB81016C
:10325000E44A5054E04850F8240042F6E06190FB04
:10326000F1F0E1490860DB4850F8240042F6E061E3
:1032700090FBF1F0DD4908600020D64941F82400B8
:10328000D54941F82400DA4850F8240042F6E061BC
:1032900090FBF1F5D74850F8240090FBF1F6CF4AA7
:1032A00029463046FDF75EFBD34941F82400084625
:1032B00030F82400C0F3072004EB4401042202EBA1
:1032C0008101C84A5054CC4810F8240004EB440152
:1032D000052202EB8101C34A5054C0480088C0F364
:1032E000072004EB4401062202EB8101BD4A505441
:1032F000BA48007804EB4401072202EB8101B94A85
:103300005054BC4850F8240042F6E06190FBF1F0C4
:10331000BA490860B64850F8240042F6E06190FBD4
:10332000F1F0B74908600020B14941F82400B149E3
:1033300041F82400B34850F8240042F6E06190FBC5
:10334000F1F5B14850F8240090FBF1F6A34A294664
:103350003046FDF707FBAD4941F82400084630F838
:103360002400C0F3072004EB4401082202EB810192
:103370009C4A5054A54810F8240004EB440109224B
:1033800002EB8101974A505494480088C0F307200B
:1033900004EB44010A2202EB8101924A50548F4807
:1033A000007804EB44010B2202EB81018D4A50545A
:1033B000954850F8240042F6E06190FBF1F0944902
:1033C0000860904850F8240042F6E06190FBF1F06C
:1033D0009049086000208B4941F824008A4941F84F
:1033E00024002046FFF7FCF937E18B4850F8240011
:1033F00042F6E06190FBF1F5884850F8240090FB1C
:10340000F1F6764A29463046FDF7ACFA744941F8A0
:103410002400084630F82400C0F3072004EB4401E0
:10342000002202EB81016F4A50546D4810F82400CD
:1034300004EB4401012202EB81016A4A50546748BF
:103440000088C0F3072004EB4401022202EB810153
:10345000644A50546148007804EB4401032202EBB3
:103460008101604A50546D4850F8240042F6E061F2
:1034700090FBF1F05C490860674850F8240042F680
:10348000E06190FBF1F0594908600020624941F881
:103490002400624941F82400614850F8240042F6B3
:1034A000E06190FBF1F55F4850F8240090FBF1F6E5
:1034B0004A4A29463046FDF755FA4F4941F824005B
:1034C000084630F82400C0F3072004EB440104222E
:1034D00002EB8101434A5054474810F8240004EBA2
:1034E0004401052202EB81013E4A50543B480088CA
:1034F000C0F3072004EB4401062202EB8101394AA4
:1035000050543648007804EB4401072202EB810155
:10351000344A5054434850F8240042F6E06190FB8E
:10352000F1F0364908603E4850F8240042F6E06168
:1035300090FBF1F0324908600020394941F824003D
:10354000384941F82400384850F8240042F6E06138
:1035500090FBF1F5354850F8240090FBF1F61F4A36
:1035600029463046FDF7FEF9284941F8240008466F
:1035700030F82400C0F3072004EB4401082202EBDA
:103580008101184A5054214810F8240004EB4401EA
:10359000092202EB8101134A505410480088C0F3FD
:1035A000072004EB44010A2202EB81010D4A50542A
:1035B0000A48007804EB44010B2202EB8101094A1E
:1035C00050541A4850F8240042F6E06190FBF1F0A4
:1035D0000F492DE0E00C0020000D0020000300202A
:1035E000600E002034050020C8000020D400002018
:1035F000200D0020400D0020800E0020CC00002077
:10360000D8000020600D0020800D0020A00E0020BA
:10361000D0000020DC000020A00D0020C00D002004
:10362000E00D0020000E0020200E0020400E0020A3
:1036300008600B4850F8240042F6E06190FBF1F07E
:10364000084908600020064941F82400064941F86D
:1036500024002046FFF7C4F800BF00BF70BD000083
:10366000200E0020DC000020400E002070B5044633
:10367000074800880649091F098840EA0145214694
:103680002846FEF7CFFC2046FEF79CFC70BD0000EC
:103690001C28004030B589B00546284600F07AF86D
:1036A000044601A92046FEF7BDFC01A8FEF727FD50
:1036B00008B1A4F561642046FDF702FB09B030BDF6
:1036C00010B5044600BF80210548FDF75DFB0028CA
:1036D000F9D0A1B20248FDF764FB002010BD000044
:1036E0000038014000B5294B21F0004287B09A42D2
:1036F00003DC00221346009233E0254B9A420DD1A1
:1037000068B94FF00100FDF759FF002207B01346DA
:10371000104611465DF804EBFCF72BBE06DB07B044
:103720004FF001025DF804EBFCF762BF02AAFDF75F
:103730001FFC10F003014FF001000DD0012914D03F
:1037400002291AD00DF1080CBCE80F00FDF7D4FDDA
:1037500007B081F0004100BD0DF1080C0090BCE8FD
:103760000F00FDF79DFE07B000BD0DF1080CBCE891
:103770000F00FDF7C1FD07B000BD0DF1080C009072
:10378000BCE80F00FDF78CFEE2E70000FB21E93FFB
:103790000000F07FF0B5024600BF1488A1B240F2ED
:1037A0006D1401FB04F014687CB1CC1CE61704EB2B
:1037B000967600EBA6004C1E642694FBF6F4001BE4
:1037C0004C1EB60094FBF6F420441D4C001B94885C
:1037D000641EA5B2002304E01A4CE45C20445C1C87
:1037E000E3B2AB42F8DB4FF4C87691FBF6F706FB89
:1037F000171686B1CE1701EB9676B610B1EB86069A
:1038000005D1642691FBF6F706FB17161EB954681E
:10381000012C00D9401E94682044441E0A4E744373
:103820001669C6EB4617C7EB062604EB0614566965
:10383000C6EB061604EB86049669A019F0BD0000DD
:1038400075250B00303B00088051010010B514486D
:10385000C06940F080501249C8611248006840F4C5
:103860008070104908601048008840F010000E4930
:1038700008800E48FFF70EFF0B48008820F010006C
:103880000949088000BF0848008810F0200FFAD0CE
:103890000448006820F480700249086010BD0000F0
:1038A000001002400070004004280040201000205A
:1038B00010B50B48FFF7DAFE0948046840F2DE70E5
:1038C00084420CDA07490860092048601A208860A1
:1038D00017200861486100208861FFF7B7FF10BD1D
:1038E00000100020201000200B5D89390B5D893904
:1038F0000B5D89399F9DC237C98E8D39C98E8D392F
:10390000C98E8D390327DB390000000039B4C83C6B
:10391000151D493DA4DF3E3D9A99193E3333333E90
:10392000A8C64B3E4260653E00000000DC0F4940E7
:1039300000002110422063308440A550C660E7702B
:10394000088129914AA16BB18CC1ADD1CEE1EFF1D3
:103950003112100273325222B5529442F772D6627B
:10396000399318837BB35AA3BDD39CC3FFF3DEE323
:103970006224433420040114E664C774A4448554CB
:103980006AA54BB528850995EEE5CFF5ACC58DD573
:103990005336722611163006D776F6669556B4461B
:1039A0005BB77AA719973887DFF7FEE79DD7BCC7C3
:1039B000C448E5588668A77840086118022823386B
:1039C000CCC9EDD98EE9AFF9488969990AA92BB913
:1039D000F55AD44AB77A966A711A500A333A122ABB
:1039E000FDDBDCCBBFFB9EEB799B588B3BBB1AAB63
:1039F000A66C877CE44CC55C222C033C600C411C0B
:103A0000AEED8FFDECCDCDDD2AAD0BBD688D499DB2
:103A1000977EB66ED55EF44E133E322E511E700E5A
:103A20009FFFBEEFDDDFFCCF1BBF3AAF599F788F02
:103A30008891A981CAB1EBA10CD12DC14EF16FE1E2
:103A40008010A100C230E32004502540467067601A
:103A5000B9839893FBA3DAB33DC31CD37FE35EF332
:103A6000B1029012F322D23235421452776256726A
:103A7000EAB5CBA5A89589856EF54FE52CD50DC582
:103A8000E234C324A01481046674476424540544BA
:103A9000DBA7FAB79987B8975FE77EF71DC73CD7D2
:103AA000D326F2369106B01657667676154634560A
:103AB0004CD96DC90EF92FE9C899E9898AB9ABA922
:103AC0004458654806782768C018E1088238A3285A
:103AD0007DCB5CDB3FEB1EFBF98BD89BBBAB9ABB72
:103AE000754A545A376A167AF10AD01AB32A923AAA
:103AF0002EFD0FED6CDD4DCDAABD8BADE89DC98DC2
:103B0000267C076C645C454CA23C832CE01CC10CF9
:103B10001FEF3EFF5DCF7CDF9BAFBABFD98FF89F11
:103B2000176E367E554E745E932EB23ED10EF01E49
:103B30001F1D1F1E1F1E1F1F1E1F1E1F0000000017
:103B40000000000000000000000000000000000075
:103B50000000000000000000000000000000000065
:103B60000000000000000000000000000000000055
:103B70000000000000000000000000000000000045
:103B80000000000000000000000000000000000035
:103B90000000000000000000000000000000000025
:103BA0000000000000000000000000000000000015
:103BB00000000000000000000000000000006A2D6E
:103BC00000000000000000000000000000000000F5
:103BD00000000000000000000000000000000000E5
:103BE00000000000000000000000000000000000D5
:103BF00000000000000000000000000000000000C5
:103C000000000000000000000000000000000000B4
:103C100000000000000000000000000000000000A4
:103C20000000000000000000000000000000000094
:103C300000000000000000000000000000001E1B4B
:103C40006A2D0000000000000000000000000000DD
:103C50000000000000000000000000000000000064
:103C60000000000000000000000000000000000054
:103C70000000000000000000000000000000000044
:103C80000000000000000000000000000000000034
:103C90000000000000000000000000000000000024
:103CA0000000000000000000000000000000000014
:103CB00000000000000000000000000000000E12E4
:103CC00034226A2D00000000000000000000000007
:103CD00000000000000000000000000000000000E4
:103CE00000000000000000000000000000000000D4
:103CF00000000000000000000000000000000000C4
:103D000000000000000000000000000000000000B3
:103D100000000000000000000000000000000000A3
:103D20000000000000000000000000000000000093
:103D30000000000000000000000000000000080E6D
:103D40001E1B40256A2D000000000000000000003E
:103D50000000000000000000000000000000000063
:103D60000000000000000000000000000000000053
:103D70000000000000000000000000000000000043
:103D80000000000000000000000000000000000033
:103D90000000000000000000000000000000000023
:103DA0000000000000000000000000000000000013
:103DB0000000000000000000000000000000050BF3
:103DC00014162B1F48276A2D000000000000000079
:103DD00000000000000000000000000000000000E3
:103DE00000000000000000000000000000000000D3
:103DF00000000000000000000000000000000000C3
:103E000000000000000000000000000000000000B2
:103E100000000000000000000000000000000000A2
:103E20000000000000000000000000000000000092
:103E30000000000000000000000000000000040975
:103E40000E121E1B34224D286A2D000000000000B7
:103E50000000000000000000000000000000000062
:103E60000000000000000000000000000000000052
:103E70000000000000000000000000000000000042
:103E80000000000000000000000000000000000032
:103E90000000000000000000000000000000000022
:103EA0000000000000000000000000000000000012
:103EB00000000000000000000000000000000308F7
:103EC0000A101717271E3B2451296A2D00000000F5
:103ED00000000000000000000000000000000000E2
:103EE00000000000000000000000000000000000D2
:103EF00000000000000000000000000000000000C2
:103F000000000000000000000000000000000000B1
:103F100000000000000000000000000000000000A1
:103F20000000000000000000000000000000000091
:103F30000000000000000000000000000000020778
:103F4000080E11151E1B2E20402554296A2D000035
:103F50000000000000000000000000000000000061
:103F60000000000000000000000000000000000051
:103F70000000000000000000000000000000000041
:103F80000000000000000000000000000000000031
:103F90000000000000000000000000000000000021
:103FA0000000000000000000000000000000000011
:103FB00000000000000000000000000000000206F9
:103FC000060D0E121818251D34224426572A6A2D74
:103FD00000000000000000000000000000000000E1
:103FE00000000000000000000000000000000000D1
:103FF00000000000000000000000000000000000C1
:1040000000000000000000000000000000000000B0
:1040100000000000000000000000000000000000A0
:104020000000000000000000000000000000000090
:104030000000000000000000000000000000010679
:10404000050B0B1114161E1B2B1F38234827582A4B
:104050006A2D0000000000000000000000000000C9
:104060000000000000000000000000000000000050
:104070000000000000000000000000000000000040
:104080000000000000000000000000000000000030
:104090000000000000000000000000000000000020
:1040A0000000000000000000000000000000000010
:1040B00000000000000000000000000000000105FA
:1040C000040A090F10141918241D2F203D244B2712
:1040D0005A2A6A2D000000000000000000000000C5
:1040E00000000000000000000000000000000000D0
:1040F00000000000000000000000000000000000C0
:1041000000000000000000000000000000000000AF
:10411000000000000000000000000000000000009F
:10412000000000000000000000000000000000008F
:104130000000000000000000000000000000010579
:104140000409080E0E1215171E1B281E34224025C6
:104150004D285B2B6A2D00000000000000000000CD
:10416000000000000000000000000000000000004F
:10417000000000000000000000000000000000003F
:10418000000000000000000000000000000000002F
:10419000000000000000000000000000000000001F
:1041A000000000000000000000000000000000000F
:1041B00000000000000000000000000000000104FA
:1041C0000309070D0C1112151A19231C2D20372372
:1041D00043264F285C2B6A2D0000000000000000E1
:1041E00000000000000000000000000000000000CF
:1041F00000000000000000000000000000000000BF
:1042000000000000000000000000000000000000AE
:10421000000000000000000000000000000000009E
:10422000000000000000000000000000000000008E
:104230000000000000000000000000000000010479
:104240000308060C0A10101417171E1B271E302116
:104250003B24462651295D2B6A2D000000000000FA
:10426000000000000000000000000000000000004E
:10427000000000000000000000000000000000003E
:10428000000000000000000000000000000000002E
:10429000000000000000000000000000000000001E
:1042A000000000000000000000000000000000000E
:1042B00000000000000000000000000000000104F9
:1042C0000208050B090F0E1214161B19221C2B1FB6
:1042D00034223D24482753295E2B6A2D000000001C
:1042E00000000000000000000000000000000000CE
:1042F00000000000000000000000000000000000BE
:1043000000000000000000000000000000000000AD
:10431000000000000000000000000000000000009D
:10432000000000000000000000000000000000008D
:104330000000000000000000000000000000000479
:104340000207040B080E0C11111517181E1B261D51
:104350002E20372340254A2754295F2B6A2D000041
:10436000000000000000000000000000000000004D
:10437000000000000000000000000000000000003D
:10438000000000000000000000000000000000002D
:10439000000000000000000000000000000000001D
:1043A000000000000000000000000000000000000D
:1043B00000000000000000000000000000000003FA
:1043C0000207040A070D0B100F1315161B19221CE8
:1043D000291E3121392342254C275529602B6A2D6E
:1043E00000000000000000000000000000000000CD
:1043F00000000000000000000000000000000000BD
:1044000000000000000000000000000000000000AC
:10441000000000000000000000000000000000009C
:10442000000000000000000000000000000000008C
:104430000000000000000000000000000000000379
:1044400002060409060D0A100E12131518181E1B79
:10445000251D2C1F34223C2444264D28572A602B2E
:104460006A2D0000000000000000000000000000B5
:10447000000000000000000000000000000000003C
:10448000000000000000000000000000000000002C
:10449000000000000000000000000000000000001C
:1044A000000000000000000000000000000000000C
:1044B00000000000000000000000000000000003F9
:1044C00001060309060C090F0C12111416171B190B
:1044D000211C281E2F2036223E2446264F28582AEB
:1044E000612B6A2D000000000000000000000000A9
:1044F00000000000000000000000000000000000BC
:1045000000000000000000000000000000000000AB
:10451000000000000000000000000000000000009B
:10452000000000000000000000000000000000008B
:104530000000000000000000000000000000000378
:1045400001060309050B080E0B110F131416191899
:104550001E1B241D2B1F312138234025482750289E
:10456000582A612C6A2D00000000000000000000A5
:10457000000000000000000000000000000000003B
:10458000000000000000000000000000000000002B
:10459000000000000000000000000000000000001B
:1045A000000000000000000000000000000000000B
:1045B00000000000000000000000000000000003F8
:1045C00001050308050B070D0A100E121215171727
:1045D0001C19211C271E2D2034223B24422549274B
:1045E0005129592A622C6A2D0000000000000000A9
:1045F00000000000000000000000000000000000BB
:1046000000000000000000000000000000000000AA
:10461000000000000000000000000000000000009A
:10462000000000000000000000000000000000008A
:104630000000000000000000000000000000000377
:1046400001050208040A070D090F0D1210141516B2
:1046500019181E1B241D291F2F2036223D244426F5
:104660004B2752295A2A622C6A2D000000000000B4
:10467000000000000000000000000000000000003A
:10468000000000000000000000000000000000002A
:10469000000000000000000000000000000000001A
:1046A000000000000000000000000000000000000A
:1046B00000000000000000000000000000000002F8
:1046C00001050207040A060C090F0C110F1313153C
:1046D00017171C1A211C261D2C1F322138233E249B
:1046E00045264C2853295B2A622C6A2D00000000C5
:1046F00000000000000000000000000000000000BA
:1047000000000000000000000000000000000000A9
:104710000000000000000000000000000000000099
:104720000000000000000000000000000000000089
:104730000000000000000000000000000000000277
:10474000010502070409050C080E0B100E121115C5
:1047500015171A191E1B231C281E2E2034223A233B
:10476000402547264D2854295B2B632C6A2D0000D9
:104770000000000000000000000000000000000039
:104780000000000000000000000000000000000029
:104790000000000000000000000000000000000019
:1047A0000000000000000000000000000000000009
:1047B00000000000000000000000000000000002F7
:1047C000010502070309050B070D0A100D1210144D
:1047D000141618181C1A211B251D2B1F30213622D8
:1047E0003B24422548274E2855295C2B632C6A2DF3
:1047F00000000000000000000000000000000000B9
:1048000000000000000000000000000000000000A8
:104810000000000000000000000000000000000098
:104820000000000000000000000000000000000088
:104830000000000000000000000000000000000276
:10484000010402070309050B070D090F0C110F13D3
:10485000121516171A191E1B231C281E2D20322173
:1048600037233D24432649274F2856295C2B632CA8
:104870006A2D0000000000000000000000000000A1
:104880000000000000000000000000000000000028
:104890000000000000000000000000000000000018
:1048A0000000000000000000000000000000000008
:1048B00000000000000000000000000000000002F6
:1048C000010402060308040A060D080F0B110E125C
:1048D0001114141618181C1A201B251D2A1F2F200E
:1048E000342239233F2544264A275028572A5D2B56
:1048F000632C6A2D00000000000000000000000092
:1049000000000000000000000000000000000000A7
:104910000000000000000000000000000000000097
:104920000000000000000000000000000000000087
:104930000000000000000000000000000000000275
:10494000010401060308040A060C080E0A100D12E1
:104950001014131517171A191E1B221C271E2B1FA4
:10496000302135223B24402546264B275129572A02
:104970005D2B642C6A2D0000000000000000000088
:104980000000000000000000000000000000000027
:104990000000000000000000000000000000000017
:1049A0000000000000000000000000000000000007
:1049B00000000000000000000000000000000002F5
:1049C000010401060208040A050C070E0A0F0C1167
:1049D0000F131215151619181C1A201B241D291E39
:1049E0002D20322137233C24412547264C285229AB
:1049F000582A5E2B642C6A2D000000000000000085
:104A000000000000000000000000000000000000A6
:104A10000000000000000000000000000000000096
:104A20000000000000000000000000000000000086
:104A30000000000000000000000000000000000274
:104A40000104010602080409050B070D090F0B11EB
:104A50000E121114141617171B191E1B221C261ECA
:104A60002B1F2F20342238233D24432548274D284F
:104A70005329582A5E2B642C6A2D00000000000088
:104A80000000000000000000000000000000000026
:104A90000000000000000000000000000000000016
:104AA0000000000000000000000000000000000006
:104AB00000000000000000000000000000000002F4
:104AC0000004010602070309050B060D080E0B1072
:104AD0000D1210141315161719181C1A201B241D5B
:104AE000281E2C20312135223A233F2544264927F0
:104AF0004E285329592A5F2B642C6A2D0000000090
:104B000000000000000000000000000000000000A5
:104B10000000000000000000000000000000000095
:104B20000000000000000000000000000000000085
:104B30000000000000000000000000000000000273
:104B40000004010502070309040B060C080E0A10F5
:104B50000C110F131115141617181B191E1B221CEC
:104B6000261D2A1F2E20322137233B24402545268F
:104B70004A274F285429592A5F2B642C6A2D00009C
:104B80000000000000000000000000000000000025
:104B90000000000000000000000000000000000015
:104BA0000000000000000000000000000000000005
:104BB00000000000000000000000000000000002F3
:104BC0000003010502070309040A060C070E090F7A
:104BD0000B110E1210141316161719181D1A201B7C
:104BE000241D271E2B1F2F20342238233D2441252E
:104BF00046264B27502855295A2A5F2B652C6A2DAB
:104C000000000000000000000000000000000000A4
:104C10000000000000000000000000000000000094
:104C20000000000000000000000000000000000084
:104C30000000000000000000000000000000000272
:104C40000003010502070308040A050C070D090FFC
:104C50000B100D120F131215151618181B191E1B09
:104C6000221C251D291E2D203121352239233E24C9
:104C7000422547264C27502855295A2A602B652C57
:104C80006A2D00000000000000000000000000008D
:104C90000000000000000000000000000000000014
:104CA0000000000000000000000000000000000004
:104CB00000000000000000000000000000000002F2
:104CC0000003010502070308040A050B070D080E7F
:104CD0000A100C110F1311141416171719191D1A95
:104CE000201B231C271E2B1F2E20322136223B2463
:104CF0003F25432648274C285129562A5B2A602BFA
:104D0000652C6A2D0000000000000000000000007B
:104D10000000000000000000000000000000000093
:104D20000000000000000000000000000000000083
:104D30000000000000000000000000000000000271
:104D400000030105020602080409050B060D080E02
:104D50000A100C110E1210141315151718181B1920
:104D60001E1B211C251D281E2C1F302134223823F8
:104D70003C244025442649274D285229572A5B2B9D
:104D8000602B652C6A2D0000000000000000000070
:104D90000000000000000000000000000000000013
:104DA0000000000000000000000000000000000003
:104DB00000000000000000000000000000000002F1
:104DC00000030105010602080309050B060C070E86
:104DD000090F0B110D120F131215141617171A19AC
:104DE0001D1A201B231C261E2A1F2D20312135228F
:104DF00039233D24412545264A274E285229572A42
:104E00005C2B602B652C6A2D000000000000000068
:104E10000000000000000000000000000000000092
:104E20000000000000000000000000000000000082
:104E30000000000000000000000000000000000270
:104E400000030105010602070309040A060C070D09
:104E5000090F0B100C120F13111413161617181834
:104E60001B191E1B211C241D281E2B1F2F20322125
:104E700036223A233E24422546264A274F285329E4
:104E8000582A5C2B612B652C6A2D00000000000065
:104E90000000000000000000000000000000000012
:104EA0000000000000000000000000000000000002
:104EB00000000000000000000000000000000001F1
:104EC00000030104010602070309040A050C070D8B
:104ED000080E0A100C110E121014121515161718C0
:104EE0001A191D1A201B231C261D291F2D203021B5
:104EF000342237233B243F25432647264B274F2880
:104F00005429582A5C2B612B652C6A2D0000000067
:104F10000000000000000000000000000000000091
:104F20000000000000000000000000000000000081
:104F30000000000000000000000000000000000170
:104F400000030104010602070309040A050B060D0C
:104F5000080E0A0F0B110D120F1311151416161748
:104F600019181B191E1B211C241D271E2B1F2E2048
:104F70003121352238233C244025442648274C281B
:104F800050285429582A5D2B612C662C6A2D00006C
:104F90000000000000000000000000000000000011
:104FA0000000000000000000000000000000000001
:104FB00000000000000000000000000000000001F0
:104FC00000030104010602070308040A050B060C8E
:104FD000080E090F0B100D120F13111413151517CE
:104FE00018181A191D1A201B231C261D291E2C1FD8
:104FF0002F20332136223A233D24412545264927B7
:105000004D2851285529592A5D2B612C662C6A2D73
:105010000000000000000000000000000000000090
:105020000000000000000000000000000000000080
:10503000000000000000000000000000000000016F
:10504000000301040105020703080409050B060C0F
:10505000070D090F0A100C110E1210141215141658
:10506000171719181C191E1B211C241D271E2A1F67
:105070002D203021342237233B243E24422546264E
:1050800049274D2851295529592A5D2B622C662C18
:105090006A2D000000000000000000000000000079
:1050A0000000000000000000000000000000000000
:1050B00000000000000000000000000000000001EF
:1050C000000301040105020702080309040B060C92
:1050D000070D080E0A100B110D120F1311141316E1
:1050E000161718181A191D1A201B221C251D281EF8
:1050F0002B1F2E203121352238233C243F254326E7
:1051000046264A274E28522956295A2A5E2B622CB7
:10511000662C6A2D00000000000000000000000066
:10512000000000000000000000000000000000007F
:10513000000000000000000000000000000000016E
:10514000000301040105020602080309040A050C14
:10515000070D080E090F0B100D120E131014121567
:105160001516171719181C1A1E1B211C241D261E84
:10517000291F2C202F203321362239233D2440257E
:10518000442647274B274E285229562A5A2A5E2B57
:10519000622C662C6A2D0000000000000000000058
:1051A00000000000000000000000000000000000FF
:1051B00000000000000000000000000000000001EE
:1051C000000301040105020602080309040A050B95
:1051D000060D080E090F0A100C110E1210141215EC
:1051E0001416161718181B191D1A201B221C251D12
:1051F000281E2B1F2E203121342237233A233D2411
:105200004125442648274B274F285329572A5A2AF5
:105210005E2B622C662C6A2D00000000000000004E
:10522000000000000000000000000000000000007E
:10523000000000000000000000000000000000016D
:10524000000201040105020602070309040A050B16
:10525000060C070D090F0A100C110D120F13111473
:1052600013151516171719191C1A1E1B211C231D9F
:10527000261D291E2C1F2F203221352238233B24A6
:105280003E244225452649274C2850285329572A91
:105290005B2A5E2B622C662C6A2D00000000000049
:1052A00000000000000000000000000000000000FE
:1052B00000000000000000000000000000000001ED
:1052C000000200040105010602070308040A050B99
:1052D000060C070D080E0A0F0B110D120E131014F9
:1052E00012151416161718181B191D1A1F1B221C2D
:1052F000251D271E2A1F2D20302133213622392338
:105300003C243F254225462649274D28502854292C
:10531000572A5B2A5F2B622C662C6A2D0000000046
:10532000000000000000000000000000000000007D
:10533000000000000000000000000000000000016C
:105340000002000401050106020703080409040B1A
:10535000050C070D080E090F0B100C110E1210147E
:1053600011151316151717181A191C1A1E1B211CB4
:10537000231C261D281E2B1F2E20312134223723CB
:105380003A233D244025432647264A274D285129C4
:105390005429582A5B2B5F2B632C662C6A2D000046
:1053A00000000000000000000000000000000000FD
:1053B00000000000000000000000000000000001EC
:1053C0000002000401050106020703080309040A9C
:1053D000050C060D080E090F0A100C110D120F1303
:1053E000111413151516171719181B191D1A1F1B41
:1053F000221C241D271E291F2C1F2F20322135225D
:1054000038233B243E244125442647274A274E285B
:1054100051295529582A5C2B5F2B632C662C6A2D49
:10542000000000000000000000000000000000007C
:10543000000000000000000000000000000000016B
:105440000002000301050106020702080309040A1D
:10545000050B060C070D090F0A100B110D120E1388
:10546000101412151416161718181A191C1A1E1BC8
:10547000211B231C251D281E2B1F2D2030213321ED
:10548000362238233B243E254225452648274B27F4
:105490004E2852295529582A5C2B5F2B632C662CE9
:1054A0006A2D000000000000000000000000000065
:1054B00000000000000000000000000000000001EB
:1054C0000002000301040106020702080309040A9E
:1054D000050B060C070D080E090F0B100C110E1210
:1054E0000F13111413151516171719181B191D1A58
:1054F0001F1B221C241D261E291E2C1F2E2031217D
:105500003422362239233C243F254225452648278C
:105510004C274F2852295529592A5C2B602B632C84
:10552000672C6A2D00000000000000000000000051
:10553000000000000000000000000000000000016A
:105540000002000301040105020702080309040A1E
:10555000050B060C070D080E090F0A100C110D1291
:105560000F13111412151416161718181A191C1ADD
:105570001E1B201B231C251D281E2A1F2D202F200B
:105580003221352237233A233D244025432646261F
:1055900049274C284F2853295629592A5C2B602B20
:1055A000632C672C6A2D0000000000000000000042
:1055B00000000000000000000000000000000001EA
:1055C0000002000301040105020602080309040A9F
:1055D000050B050C060D080E090F0A100B110D1214
:1055E0000E131014121513161517171719181B1967
:1055F0001D1A1F1B221C241D261E291E2B1F2E2098
:1056000030213321352238233B243E2441254426B2
:1056100047264A274D2850285329562A592A5D2BB8
:10562000602B632C672C6A2D000000000000000036
:105630000000000000000000000000000000000169
:105640000002000301040105020602070308040921
:10565000040A050C060D070E080F0A100B110C1199
:105660000E120F13111413151416161718181A19F1
:105670001C1A1E1B201B231C251D271E2A1F2C1F26
:105680002F2031213422362239233C243F25412545
:10569000442647274A274D2850285329572A5A2A53
:1056A0005D2B602B632C672C6A2D0000000000002E
:1056B00000000000000000000000000000000001E9
:1056C00000020003010401050206020703080309A2
:1056D000040A050B060C070D080E090F0B100C1120
:1056E0000D120F1310141215141615171718191878
:1056F0001B191D1A1F1B211C241D261D281E2B1FB4
:105700002D202F203221352237233A233D243F25D7
:105710004225452648274B274E2851295429572AE8
:105720005A2A5D2B602B642C672C6A2D0000000028
:105730000000000000000000000000000000000168
:105740000002000301040105010602070308030922
:10575000040A050B060C070D080E090F0A100C11A0
:105760000D120E13101411151315151617171818FE
:105770001A191C1A1E1B201B221C251D271E291F3F
:105780002B1F2E2030213321352238233B243D246A
:1057900040254326462648274B274E285129542981
:1057A000572A5A2A5D2B602B642C672C6A2D000027
:1057B00000000000000000000000000000000001E8
:1057C00000020003010401050106020703080309A2
:1057D000040A050B060C070D080E090F0A100B1121
:1057E0000C120E120F131114121514161617181886
:1057F00019191B191D1A1F1B211C231D261D281ECC
:105800002A1F2C202F2031213422362239233B24F9
:105810003E2441254326462649274C284F28522915
:105820005529582A5B2A5E2B612B642C672C6A2D24
:105830000000000000000000000000000000000167
:105840000002000301040105010602070208030922
:10585000040A050B050C060D070E080F0A0F0B10A6
:105860000C110D120F13101412151316151617170D
:1058700019181A191C1A1E1B201B221C241D271E56
:10588000291E2B1F2D2030213221342237233A2389
:105890003C243F254125442647264A274C284F28AB
:1058A00052295529582A5B2A5E2B612B642C672DBF
:1058B0006A2D000000000000000000000000000150
:1058C00000020003010401050106020702080309A2
:1058D000040A040B050B060C070D080E090F0A102D
:1058E0000C110D120E131014111413151416161793
:1058F00018181A191B191D1A1F1B211C231C251DE2
:10590000271E2A1F2C1F2E20312133213522382318
:105910003A233D243F254225452647274A274D283F
:10592000502852295529582A5B2A5E2B612C642C59
:10593000672D6A2D0000000000000000000000013B
:105940000002000301040105010602070208030921
:105950000409040A050B060C070D080E090F0A10AE
:105960000B110D120E120F13111412151416151718
:10597000171719181B191C1A1E1B201B221C241D6B
:10598000261E281E2B1F2D202F20312134223622A7
:1059900038233B243D2440254325452648274B27D3
:1059A0004D28502853295629582A5B2B5E2B612CF1
:1059B000642C672D6A2D000000000000000000012B
:1059C00000020003010401050106020702070308A3
:1059D0000309040A050B060C070D080E090F0A102F
:1059E0000B100C110D120F131014121513151516A0
:1059F000161718181A191B191D1A1F1B211C231CF6
:105A0000251D271E291F2B1F2E2030213221342235
:105A1000372339233C243E24412543264626482764
:105A20004B274E2850285329562A592A5C2B5E2B87
:105A3000612C642C672D6A2D00000000000000011D
:105A40000002000300040105010602060207030824
:105A50000309040A050B060C060D070E080E090FB4
:105A60000B100C110D120E13101411141315141623
:105A70001617171819181B191C1A1E1B201B221C7D
:105A8000241D261D281E2A1F2C202E2031213321C3
:105A9000352238233A233C243F25412544264626F7
:105AA00049274B274E2851295329562A592A5C2B1E
:105AB0005F2B612C642C672D6A2D00000000000113
:105AC00000020003000401050105020602070308A5
:105AD0000309040A050B050C060D070D080E090F36
